{
    "_format": "hh-sol-artifact-1",
    "contractName": "CryptoBoondocks",
    "sourceName": "contracts/CryptoBoondocks.sol",
    "abi": [
        {
            "inputs": [
                {
                    "internalType": "string[]",
                    "name": "characterNames",
                    "type": "string[]"
                },
                {
                    "internalType": "string[]",
                    "name": "characterImageURIs",
                    "type": "string[]"
                },
                {
                    "internalType": "uint256[]",
                    "name": "characterHp",
                    "type": "uint256[]"
                },
                {
                    "internalType": "uint256[]",
                    "name": "characterAttackDmg",
                    "type": "uint256[]"
                },
                {
                    "internalType": "uint256[]",
                    "name": "characterNiggatry",
                    "type": "uint256[]"
                },
                {
                    "internalType": "string",
                    "name": "bossName",
                    "type": "string"
                },
                {
                    "internalType": "string",
                    "name": "bossImageURI",
                    "type": "string"
                },
                {
                    "internalType": "uint256",
                    "name": "bossHp",
                    "type": "uint256"
                },
                {
                    "internalType": "uint256",
                    "name": "bossAttackDamage",
                    "type": "uint256"
                }
            ],
            "stateMutability": "nonpayable",
            "type": "constructor"
        },
        {
            "anonymous": false,
            "inputs": [
                {
                    "indexed": true,
                    "internalType": "address",
                    "name": "owner",
                    "type": "address"
                },
                {
                    "indexed": true,
                    "internalType": "address",
                    "name": "approved",
                    "type": "address"
                },
                {
                    "indexed": true,
                    "internalType": "uint256",
                    "name": "tokenId",
                    "type": "uint256"
                }
            ],
            "name": "Approval",
            "type": "event"
        },
        {
            "anonymous": false,
            "inputs": [
                {
                    "indexed": true,
                    "internalType": "address",
                    "name": "owner",
                    "type": "address"
                },
                {
                    "indexed": true,
                    "internalType": "address",
                    "name": "operator",
                    "type": "address"
                },
                {
                    "indexed": false,
                    "internalType": "bool",
                    "name": "approved",
                    "type": "bool"
                }
            ],
            "name": "ApprovalForAll",
            "type": "event"
        },
        {
            "anonymous": false,
            "inputs": [
                {
                    "indexed": false,
                    "internalType": "uint256",
                    "name": "newBossHp",
                    "type": "uint256"
                },
                {
                    "indexed": false,
                    "internalType": "uint256",
                    "name": "newPlayerHp",
                    "type": "uint256"
                },
                {
                    "indexed": false,
                    "internalType": "bool",
                    "name": "critical",
                    "type": "bool"
                },
                {
                    "indexed": false,
                    "internalType": "bool",
                    "name": "selfDmg",
                    "type": "bool"
                },
                {
                    "indexed": false,
                    "internalType": "bool",
                    "name": "shield",
                    "type": "bool"
                },
                {
                    "indexed": false,
                    "internalType": "uint256",
                    "name": "finalDmg",
                    "type": "uint256"
                }
            ],
            "name": "AttackComplete",
            "type": "event"
        },
        {
            "anonymous": false,
            "inputs": [
                {
                    "indexed": false,
                    "internalType": "address",
                    "name": "sender",
                    "type": "address"
                },
                {
                    "indexed": false,
                    "internalType": "uint256",
                    "name": "tokenId",
                    "type": "uint256"
                },
                {
                    "indexed": false,
                    "internalType": "uint256",
                    "name": "characterIndex",
                    "type": "uint256"
                }
            ],
            "name": "CharacterNFTMinted",
            "type": "event"
        },
        {
            "anonymous": false,
            "inputs": [
                {
                    "indexed": true,
                    "internalType": "address",
                    "name": "from",
                    "type": "address"
                },
                {
                    "indexed": true,
                    "internalType": "address",
                    "name": "to",
                    "type": "address"
                },
                {
                    "indexed": true,
                    "internalType": "uint256",
                    "name": "tokenId",
                    "type": "uint256"
                }
            ],
            "name": "Transfer",
            "type": "event"
        },
        {
            "inputs": [
                {
                    "internalType": "address",
                    "name": "to",
                    "type": "address"
                },
                {
                    "internalType": "uint256",
                    "name": "tokenId",
                    "type": "uint256"
                }
            ],
            "name": "approve",
            "outputs": [],
            "stateMutability": "nonpayable",
            "type": "function"
        },
        {
            "inputs": [],
            "name": "attackBoss",
            "outputs": [],
            "stateMutability": "nonpayable",
            "type": "function"
        },
        {
            "inputs": [
                {
                    "internalType": "address",
                    "name": "owner",
                    "type": "address"
                }
            ],
            "name": "balanceOf",
            "outputs": [
                {
                    "internalType": "uint256",
                    "name": "",
                    "type": "uint256"
                }
            ],
            "stateMutability": "view",
            "type": "function"
        },
        {
            "inputs": [],
            "name": "bigBoss",
            "outputs": [
                {
                    "internalType": "string",
                    "name": "name",
                    "type": "string"
                },
                {
                    "internalType": "string",
                    "name": "imageURI",
                    "type": "string"
                },
                {
                    "internalType": "uint256",
                    "name": "hp",
                    "type": "uint256"
                },
                {
                    "internalType": "uint256",
                    "name": "maxHp",
                    "type": "uint256"
                },
                {
                    "internalType": "uint256",
                    "name": "attackDamage",
                    "type": "uint256"
                },
                {
                    "internalType": "uint256",
                    "name": "niggatry",
                    "type": "uint256"
                }
            ],
            "stateMutability": "view",
            "type": "function"
        },
        {
            "inputs": [],
            "name": "checkIfUserHasNFT",
            "outputs": [
                {
                    "components": [
                        {
                            "internalType": "uint256",
                            "name": "characterIndex",
                            "type": "uint256"
                        },
                        {
                            "internalType": "string",
                            "name": "name",
                            "type": "string"
                        },
                        {
                            "internalType": "string",
                            "name": "imageURI",
                            "type": "string"
                        },
                        {
                            "internalType": "uint256",
                            "name": "hp",
                            "type": "uint256"
                        },
                        {
                            "internalType": "uint256",
                            "name": "maxHp",
                            "type": "uint256"
                        },
                        {
                            "internalType": "uint256",
                            "name": "attackDamage",
                            "type": "uint256"
                        },
                        {
                            "internalType": "uint256",
                            "name": "niggatry",
                            "type": "uint256"
                        },
                        {
                            "internalType": "uint256",
                            "name": "lastAttack",
                            "type": "uint256"
                        }
                    ],
                    "internalType": "struct CryptoBoondocks.CharacterAttributes",
                    "name": "",
                    "type": "tuple"
                }
            ],
            "stateMutability": "view",
            "type": "function"
        },
        {
            "inputs": [],
            "name": "getAllDefaultCharacters",
            "outputs": [
                {
                    "components": [
                        {
                            "internalType": "uint256",
                            "name": "characterIndex",
                            "type": "uint256"
                        },
                        {
                            "internalType": "string",
                            "name": "name",
                            "type": "string"
                        },
                        {
                            "internalType": "string",
                            "name": "imageURI",
                            "type": "string"
                        },
                        {
                            "internalType": "uint256",
                            "name": "hp",
                            "type": "uint256"
                        },
                        {
                            "internalType": "uint256",
                            "name": "maxHp",
                            "type": "uint256"
                        },
                        {
                            "internalType": "uint256",
                            "name": "attackDamage",
                            "type": "uint256"
                        },
                        {
                            "internalType": "uint256",
                            "name": "niggatry",
                            "type": "uint256"
                        },
                        {
                            "internalType": "uint256",
                            "name": "lastAttack",
                            "type": "uint256"
                        }
                    ],
                    "internalType": "struct CryptoBoondocks.CharacterAttributes[]",
                    "name": "",
                    "type": "tuple[]"
                }
            ],
            "stateMutability": "view",
            "type": "function"
        },
        {
            "inputs": [
                {
                    "internalType": "uint256",
                    "name": "tokenId",
                    "type": "uint256"
                }
            ],
            "name": "getApproved",
            "outputs": [
                {
                    "internalType": "address",
                    "name": "",
                    "type": "address"
                }
            ],
            "stateMutability": "view",
            "type": "function"
        },
        {
            "inputs": [],
            "name": "getBigBoss",
            "outputs": [
                {
                    "components": [
                        {
                            "internalType": "string",
                            "name": "name",
                            "type": "string"
                        },
                        {
                            "internalType": "string",
                            "name": "imageURI",
                            "type": "string"
                        },
                        {
                            "internalType": "uint256",
                            "name": "hp",
                            "type": "uint256"
                        },
                        {
                            "internalType": "uint256",
                            "name": "maxHp",
                            "type": "uint256"
                        },
                        {
                            "internalType": "uint256",
                            "name": "attackDamage",
                            "type": "uint256"
                        },
                        {
                            "internalType": "uint256",
                            "name": "niggatry",
                            "type": "uint256"
                        }
                    ],
                    "internalType": "struct CryptoBoondocks.BigBoss",
                    "name": "",
                    "type": "tuple"
                }
            ],
            "stateMutability": "view",
            "type": "function"
        },
        {
            "inputs": [],
            "name": "getLastAttack",
            "outputs": [
                {
                    "internalType": "uint256",
                    "name": "nftLastAttack",
                    "type": "uint256"
                }
            ],
            "stateMutability": "view",
            "type": "function"
        },
        {
            "inputs": [
                {
                    "internalType": "address",
                    "name": "owner",
                    "type": "address"
                },
                {
                    "internalType": "address",
                    "name": "operator",
                    "type": "address"
                }
            ],
            "name": "isApprovedForAll",
            "outputs": [
                {
                    "internalType": "bool",
                    "name": "",
                    "type": "bool"
                }
            ],
            "stateMutability": "view",
            "type": "function"
        },
        {
            "inputs": [
                {
                    "internalType": "uint256",
                    "name": "_characterIndex",
                    "type": "uint256"
                }
            ],
            "name": "mintCharacterNFT",
            "outputs": [],
            "stateMutability": "nonpayable",
            "type": "function"
        },
        {
            "inputs": [],
            "name": "name",
            "outputs": [
                {
                    "internalType": "string",
                    "name": "",
                    "type": "string"
                }
            ],
            "stateMutability": "view",
            "type": "function"
        },
        {
            "inputs": [
                {
                    "internalType": "uint256",
                    "name": "",
                    "type": "uint256"
                }
            ],
            "name": "nftHolderAttributes",
            "outputs": [
                {
                    "internalType": "uint256",
                    "name": "characterIndex",
                    "type": "uint256"
                },
                {
                    "internalType": "string",
                    "name": "name",
                    "type": "string"
                },
                {
                    "internalType": "string",
                    "name": "imageURI",
                    "type": "string"
                },
                {
                    "internalType": "uint256",
                    "name": "hp",
                    "type": "uint256"
                },
                {
                    "internalType": "uint256",
                    "name": "maxHp",
                    "type": "uint256"
                },
                {
                    "internalType": "uint256",
                    "name": "attackDamage",
                    "type": "uint256"
                },
                {
                    "internalType": "uint256",
                    "name": "niggatry",
                    "type": "uint256"
                },
                {
                    "internalType": "uint256",
                    "name": "lastAttack",
                    "type": "uint256"
                }
            ],
            "stateMutability": "view",
            "type": "function"
        },
        {
            "inputs": [
                {
                    "internalType": "address",
                    "name": "",
                    "type": "address"
                }
            ],
            "name": "nftHolders",
            "outputs": [
                {
                    "internalType": "uint256",
                    "name": "",
                    "type": "uint256"
                }
            ],
            "stateMutability": "view",
            "type": "function"
        },
        {
            "inputs": [
                {
                    "internalType": "uint256",
                    "name": "tokenId",
                    "type": "uint256"
                }
            ],
            "name": "ownerOf",
            "outputs": [
                {
                    "internalType": "address",
                    "name": "",
                    "type": "address"
                }
            ],
            "stateMutability": "view",
            "type": "function"
        },
        {
            "inputs": [
                {
                    "internalType": "address",
                    "name": "from",
                    "type": "address"
                },
                {
                    "internalType": "address",
                    "name": "to",
                    "type": "address"
                },
                {
                    "internalType": "uint256",
                    "name": "tokenId",
                    "type": "uint256"
                }
            ],
            "name": "safeTransferFrom",
            "outputs": [],
            "stateMutability": "nonpayable",
            "type": "function"
        },
        {
            "inputs": [
                {
                    "internalType": "address",
                    "name": "from",
                    "type": "address"
                },
                {
                    "internalType": "address",
                    "name": "to",
                    "type": "address"
                },
                {
                    "internalType": "uint256",
                    "name": "tokenId",
                    "type": "uint256"
                },
                {
                    "internalType": "bytes",
                    "name": "_data",
                    "type": "bytes"
                }
            ],
            "name": "safeTransferFrom",
            "outputs": [],
            "stateMutability": "nonpayable",
            "type": "function"
        },
        {
            "inputs": [
                {
                    "internalType": "address",
                    "name": "operator",
                    "type": "address"
                },
                {
                    "internalType": "bool",
                    "name": "approved",
                    "type": "bool"
                }
            ],
            "name": "setApprovalForAll",
            "outputs": [],
            "stateMutability": "nonpayable",
            "type": "function"
        },
        {
            "inputs": [
                {
                    "internalType": "bytes4",
                    "name": "interfaceId",
                    "type": "bytes4"
                }
            ],
            "name": "supportsInterface",
            "outputs": [
                {
                    "internalType": "bool",
                    "name": "",
                    "type": "bool"
                }
            ],
            "stateMutability": "view",
            "type": "function"
        },
        {
            "inputs": [],
            "name": "symbol",
            "outputs": [
                {
                    "internalType": "string",
                    "name": "",
                    "type": "string"
                }
            ],
            "stateMutability": "view",
            "type": "function"
        },
        {
            "inputs": [
                {
                    "internalType": "uint256",
                    "name": "_tokenId",
                    "type": "uint256"
                }
            ],
            "name": "tokenURI",
            "outputs": [
                {
                    "internalType": "string",
                    "name": "",
                    "type": "string"
                }
            ],
            "stateMutability": "view",
            "type": "function"
        },
        {
            "inputs": [
                {
                    "internalType": "address",
                    "name": "from",
                    "type": "address"
                },
                {
                    "internalType": "address",
                    "name": "to",
                    "type": "address"
                },
                {
                    "internalType": "uint256",
                    "name": "tokenId",
                    "type": "uint256"
                }
            ],
            "name": "transferFrom",
            "outputs": [],
            "stateMutability": "nonpayable",
            "type": "function"
        }
    ],
    "bytecode": "0x60806040523480156200001157600080fd5b5060405162005d2f38038062005d2f833981810160405281019062000037919062000b0f565b6040518060400160405280600f81526020017f43727970746f426f6f6e646f636b7300000000000000000000000000000000008152506040518060400160405280600481526020017f424f4f4e000000000000000000000000000000000000000000000000000000008152508160009080519060200190620000bb92919062000877565b508060019080519060200190620000d492919062000877565b5050506040518060c001604052808581526020018481526020018381526020018381526020018281526020016000815250600760008201518160000190805190602001906200012592919062000877565b5060208201518160010190805190602001906200014492919062000877565b5060408201518160020155606082015181600301556080820151816004015560a08201518160050155905050620002d16040518060600160405280602a815260200162005ce1602a913960076000018054620001a09062000ec1565b80601f0160208091040260200160405190810160405280929190818152602001828054620001ce9062000ec1565b80156200021f5780601f10620001f3576101008083540402835291602001916200021f565b820191906000526020600020905b8154815290600101906020018083116200020157829003601f168201915b5050505050600760020154600760010180546200023c9062000ec1565b80601f01602080910402602001604051908101604052809291908181526020018280546200026a9062000ec1565b8015620002bb5780601f106200028f57610100808354040283529160200191620002bb565b820191906000526020600020905b8154815290600101906020018083116200029d57829003601f168201915b50505050506200078c60201b62001fee1760201c565b60005b89518110156200076557600e6040518061010001604052808381526020018c84815181106200032c577f4e487b7100000000000000000000000000000000000000000000000000000000600052603260045260246000fd5b602002602001015181526020018b848151811062000373577f4e487b7100000000000000000000000000000000000000000000000000000000600052603260045260246000fd5b602002602001015181526020018a8481518110620003ba577f4e487b7100000000000000000000000000000000000000000000000000000000600052603260045260246000fd5b602002602001015181526020018a848151811062000401577f4e487b7100000000000000000000000000000000000000000000000000000000600052603260045260246000fd5b6020026020010151815260200189848151811062000448577f4e487b7100000000000000000000000000000000000000000000000000000000600052603260045260246000fd5b602002602001015181526020018884815181106200048f577f4e487b7100000000000000000000000000000000000000000000000000000000600052603260045260246000fd5b6020026020010151815260200160008152509080600181540180825580915050600190039060005260206000209060080201600090919091909150600082015181600001556020820151816001019080519060200190620004f292919062000877565b5060408201518160020190805190602001906200051192919062000877565b50606082015181600301556080820151816004015560a0820151816005015560c0820151816006015560e0820151816007015550506000600e828154811062000583577f4e487b7100000000000000000000000000000000000000000000000000000000600052603260045260246000fd5b90600052602060002090600802016040518061010001604052908160008201548152602001600182018054620005b99062000ec1565b80601f0160208091040260200160405190810160405280929190818152602001828054620005e79062000ec1565b8015620006385780601f106200060c5761010080835404028352916020019162000638565b820191906000526020600020905b8154815290600101906020018083116200061a57829003601f168201915b50505050508152602001600282018054620006539062000ec1565b80601f0160208091040260200160405190810160405280929190818152602001828054620006819062000ec1565b8015620006d25780601f10620006a657610100808354040283529160200191620006d2565b820191906000526020600020905b815481529060010190602001808311620006b457829003601f168201915b505050505081526020016003820154815260200160048201548152602001600582015481526020016006820154815260200160078201548152505090506200074d60405180606001604052806024815260200162005d0b602491398260200151836060015184604001516200078c60201b62001fee1760201c565b506001816200075d919062000e24565b9050620002d4565b506200077d600d6200083860201b620020901760201c565b50505050505050505062000fe5565b6200083284848484604051602401620007a9949392919062000ce9565b6040516020818303038152906040527f8d142cdd000000000000000000000000000000000000000000000000000000007bffffffffffffffffffffffffffffffffffffffffffffffffffffffff19166020820180517bffffffffffffffffffffffffffffffffffffffffffffffffffffffff83818316178352505050506200084e60201b60201c565b50505050565b6001816000016000828254019250508190555050565b60008151905060006a636f6e736f6c652e6c6f679050602083016000808483855afa5050505050565b828054620008859062000ec1565b90600052602060002090601f016020900481019282620008a95760008555620008f5565b82601f10620008c457805160ff1916838001178555620008f5565b82800160010185558215620008f5579182015b82811115620008f4578251825591602001919060010190620008d7565b5b50905062000904919062000908565b5090565b5b808211156200092357600081600090555060010162000909565b5090565b60006200093e620009388462000d74565b62000d4b565b905080838252602082019050828560208602820111156200095e57600080fd5b60005b85811015620009ad57815167ffffffffffffffff8111156200098257600080fd5b80860162000991898262000acb565b8552602085019450602084019350505060018101905062000961565b5050509392505050565b6000620009ce620009c88462000da3565b62000d4b565b90508083825260208201905082856020860282011115620009ee57600080fd5b60005b8581101562000a22578162000a07888262000af8565b845260208401935060208301925050600181019050620009f1565b5050509392505050565b600062000a4362000a3d8462000dd2565b62000d4b565b90508281526020810184848401111562000a5c57600080fd5b62000a6984828562000e8b565b509392505050565b600082601f83011262000a8357600080fd5b815162000a9584826020860162000927565b91505092915050565b600082601f83011262000ab057600080fd5b815162000ac2848260208601620009b7565b91505092915050565b600082601f83011262000add57600080fd5b815162000aef84826020860162000a2c565b91505092915050565b60008151905062000b098162000fcb565b92915050565b60008060008060008060008060006101208a8c03121562000b2f57600080fd5b60008a015167ffffffffffffffff81111562000b4a57600080fd5b62000b588c828d0162000a71565b99505060208a015167ffffffffffffffff81111562000b7657600080fd5b62000b848c828d0162000a71565b98505060408a015167ffffffffffffffff81111562000ba257600080fd5b62000bb08c828d0162000a9e565b97505060608a015167ffffffffffffffff81111562000bce57600080fd5b62000bdc8c828d0162000a9e565b96505060808a015167ffffffffffffffff81111562000bfa57600080fd5b62000c088c828d0162000a9e565b95505060a08a015167ffffffffffffffff81111562000c2657600080fd5b62000c348c828d0162000acb565b94505060c08a015167ffffffffffffffff81111562000c5257600080fd5b62000c608c828d0162000acb565b93505060e062000c738c828d0162000af8565b92505061010062000c878c828d0162000af8565b9150509295985092959850929598565b600062000ca48262000e08565b62000cb0818562000e13565b935062000cc281856020860162000e8b565b62000ccd8162000fba565b840191505092915050565b62000ce38162000e81565b82525050565b6000608082019050818103600083015262000d05818762000c97565b9050818103602083015262000d1b818662000c97565b905062000d2c604083018562000cd8565b818103606083015262000d40818462000c97565b905095945050505050565b600062000d5762000d6a565b905062000d65828262000ef7565b919050565b6000604051905090565b600067ffffffffffffffff82111562000d925762000d9162000f8b565b5b602082029050602081019050919050565b600067ffffffffffffffff82111562000dc15762000dc062000f8b565b5b602082029050602081019050919050565b600067ffffffffffffffff82111562000df05762000def62000f8b565b5b62000dfb8262000fba565b9050602081019050919050565b600081519050919050565b600082825260208201905092915050565b600062000e318262000e81565b915062000e3e8362000e81565b9250827fffffffffffffffffffffffffffffffffffffffffffffffffffffffffffffffff0382111562000e765762000e7562000f2d565b5b828201905092915050565b6000819050919050565b60005b8381101562000eab57808201518184015260208101905062000e8e565b8381111562000ebb576000848401525b50505050565b6000600282049050600182168062000eda57607f821691505b6020821081141562000ef15762000ef062000f5c565b5b50919050565b62000f028262000fba565b810181811067ffffffffffffffff8211171562000f245762000f2362000f8b565b5b80604052505050565b7f4e487b7100000000000000000000000000000000000000000000000000000000600052601160045260246000fd5b7f4e487b7100000000000000000000000000000000000000000000000000000000600052602260045260246000fd5b7f4e487b7100000000000000000000000000000000000000000000000000000000600052604160045260246000fd5b6000601f19601f8301169050919050565b62000fd68162000e81565b811462000fe257600080fd5b50565b614cec8062000ff56000396000f3fe608060405234801561001057600080fd5b50600436106101425760003560e01c806398da4c95116100b8578063b953084e1161007c578063b953084e14610395578063c87b56dd146103b3578063c8cf27f4146103e3578063d4f24c5b14610401578063e985e9c51461040b578063f8b81ef71461043b57610142565b806398da4c95146102e55780639928dcd41461031c578063a22cb4651461033a578063a9c3267914610356578063b88d4fde1461037957610142565b806323b872dd1161010a57806323b872dd146101ff57806342842e0e1461021b5780636352211e1461023757806370a08231146102675780637df124a11461029757806395d89b41146102c757610142565b806301ffc9a7146101475780630665f9611461017757806306fdde0314610195578063081812fc146101b3578063095ea7b3146101e3575b600080fd5b610161600480360381019061015c91906132de565b610457565b60405161016e9190613bdf565b60405180910390f35b61017f610539565b60405161018c9190613f86565b60405180910390f35b61019d61069f565b6040516101aa9190613bfa565b60405180910390f35b6101cd60048036038101906101c89190613330565b610731565b6040516101da9190613b1f565b60405180910390f35b6101fd60048036038101906101f891906132a2565b6107b6565b005b6102196004803603810190610214919061319c565b6108ce565b005b6102356004803603810190610230919061319c565b61092e565b005b610251600480360381019061024c9190613330565b61094e565b60405161025e9190613b1f565b60405180910390f35b610281600480360381019061027c9190613137565b610a00565b60405161028e9190613fca565b60405180910390f35b6102b160048036038101906102ac9190613137565b610ab8565b6040516102be9190613fca565b60405180910390f35b6102cf610ad0565b6040516102dc9190613bfa565b60405180910390f35b6102ff60048036038101906102fa9190613330565b610b62565b604051610313989796959493929190613fe5565b60405180910390f35b610324610cba565b6040516103319190613fca565b60405180910390f35b610354600480360381019061034f9190613266565b610d2c565b005b61035e610ead565b60405161037096959493929190613cc9565b60405180910390f35b610393600480360381019061038e91906131eb565b610fe7565b005b61039d611049565b6040516103aa9190613bbd565b60405180910390f35b6103cd60048036038101906103c89190613330565b611209565b6040516103da9190613bfa565b60405180910390f35b6103eb61144d565b6040516103f89190613fa8565b60405180910390f35b61040961163a565b005b61042560048036038101906104209190613160565b611aaf565b6040516104329190613bdf565b60405180910390f35b61045560048036038101906104509190613330565b611b43565b005b60007f80ac58cd000000000000000000000000000000000000000000000000000000007bffffffffffffffffffffffffffffffffffffffffffffffffffffffff1916827bffffffffffffffffffffffffffffffffffffffffffffffffffffffff1916148061052257507f5b5e139f000000000000000000000000000000000000000000000000000000007bffffffffffffffffffffffffffffffffffffffffffffffffffffffff1916827bffffffffffffffffffffffffffffffffffffffffffffffffffffffff1916145b806105325750610531826120a6565b5b9050919050565b610541612f48565b60076040518060c001604052908160008201805461055e90614380565b80601f016020809104026020016040519081016040528092919081815260200182805461058a90614380565b80156105d75780601f106105ac576101008083540402835291602001916105d7565b820191906000526020600020905b8154815290600101906020018083116105ba57829003601f168201915b505050505081526020016001820180546105f090614380565b80601f016020809104026020016040519081016040528092919081815260200182805461061c90614380565b80156106695780601f1061063e57610100808354040283529160200191610669565b820191906000526020600020905b81548152906001019060200180831161064c57829003601f168201915b50505050508152602001600282015481526020016003820154815260200160048201548152602001600582015481525050905090565b6060600080546106ae90614380565b80601f01602080910402602001604051908101604052809291908181526020018280546106da90614380565b80156107275780601f106106fc57610100808354040283529160200191610727565b820191906000526020600020905b81548152906001019060200180831161070a57829003601f168201915b5050505050905090565b600061073c82612110565b61077b576040517f08c379a000000000000000000000000000000000000000000000000000000000815260040161077290613f06565b60405180910390fd5b6004600083815260200190815260200160002060009054906101000a900473ffffffffffffffffffffffffffffffffffffffff169050919050565b60006107c18261094e565b90508073ffffffffffffffffffffffffffffffffffffffff168373ffffffffffffffffffffffffffffffffffffffff161415610832576040517f08c379a000000000000000000000000000000000000000000000000000000000815260040161082990613f46565b60405180910390fd5b8073ffffffffffffffffffffffffffffffffffffffff1661085161217c565b73ffffffffffffffffffffffffffffffffffffffff161480610880575061087f8161087a61217c565b611aaf565b5b6108bf576040517f08c379a00000000000000000000000000000000000000000000000000000000081526004016108b690613e66565b60405180910390fd5b6108c98383612184565b505050565b6108df6108d961217c565b8261223d565b61091e576040517f08c379a000000000000000000000000000000000000000000000000000000000815260040161091590613f66565b60405180910390fd5b61092983838361231b565b505050565b61094983838360405180602001604052806000815250610fe7565b505050565b6000806002600084815260200190815260200160002060009054906101000a900473ffffffffffffffffffffffffffffffffffffffff169050600073ffffffffffffffffffffffffffffffffffffffff168173ffffffffffffffffffffffffffffffffffffffff1614156109f7576040517f08c379a00000000000000000000000000000000000000000000000000000000081526004016109ee90613ea6565b60405180910390fd5b80915050919050565b60008073ffffffffffffffffffffffffffffffffffffffff168273ffffffffffffffffffffffffffffffffffffffff161415610a71576040517f08c379a0000000000000000000000000000000000000000000000000000000008152600401610a6890613e86565b60405180910390fd5b600360008373ffffffffffffffffffffffffffffffffffffffff1673ffffffffffffffffffffffffffffffffffffffff168152602001908152602001600020549050919050565b60106020528060005260406000206000915090505481565b606060018054610adf90614380565b80601f0160208091040260200160405190810160405280929190818152602001828054610b0b90614380565b8015610b585780601f10610b2d57610100808354040283529160200191610b58565b820191906000526020600020905b815481529060010190602001808311610b3b57829003601f168201915b5050505050905090565b600f602052806000526040600020600091509050806000015490806001018054610b8b90614380565b80601f0160208091040260200160405190810160405280929190818152602001828054610bb790614380565b8015610c045780601f10610bd957610100808354040283529160200191610c04565b820191906000526020600020905b815481529060010190602001808311610be757829003601f168201915b505050505090806002018054610c1990614380565b80601f0160208091040260200160405190810160405280929190818152602001828054610c4590614380565b8015610c925780601f10610c6757610100808354040283529160200191610c92565b820191906000526020600020905b815481529060010190602001808311610c7557829003601f168201915b5050505050908060030154908060040154908060050154908060060154908060070154905088565b600080601060003373ffffffffffffffffffffffffffffffffffffffff1673ffffffffffffffffffffffffffffffffffffffff1681526020019081526020016000205490506000811115610d2757600f600082815260200190815260200160002060070154915050610d29565b505b90565b610d3461217c565b73ffffffffffffffffffffffffffffffffffffffff168273ffffffffffffffffffffffffffffffffffffffff161415610da2576040517f08c379a0000000000000000000000000000000000000000000000000000000008152600401610d9990613e26565b60405180910390fd5b8060056000610daf61217c565b73ffffffffffffffffffffffffffffffffffffffff1673ffffffffffffffffffffffffffffffffffffffff16815260200190815260200160002060008473ffffffffffffffffffffffffffffffffffffffff1673ffffffffffffffffffffffffffffffffffffffff16815260200190815260200160002060006101000a81548160ff0219169083151502179055508173ffffffffffffffffffffffffffffffffffffffff16610e5c61217c565b73ffffffffffffffffffffffffffffffffffffffff167f17307eab39ab6107e8899845ad3d59bd9653f200f220920489ca2b5937696c3183604051610ea19190613bdf565b60405180910390a35050565b6007806000018054610ebe90614380565b80601f0160208091040260200160405190810160405280929190818152602001828054610eea90614380565b8015610f375780601f10610f0c57610100808354040283529160200191610f37565b820191906000526020600020905b815481529060010190602001808311610f1a57829003601f168201915b505050505090806001018054610f4c90614380565b80601f0160208091040260200160405190810160405280929190818152602001828054610f7890614380565b8015610fc55780601f10610f9a57610100808354040283529160200191610fc5565b820191906000526020600020905b815481529060010190602001808311610fa857829003601f168201915b5050505050908060020154908060030154908060040154908060050154905086565b610ff8610ff261217c565b8361223d565b611037576040517f08c379a000000000000000000000000000000000000000000000000000000000815260040161102e90613f66565b60405180910390fd5b61104384848484612577565b50505050565b6060600e805480602002602001604051908101604052809291908181526020016000905b82821015611200578382906000526020600020906008020160405180610100016040529081600082015481526020016001820180546110ab90614380565b80601f01602080910402602001604051908101604052809291908181526020018280546110d790614380565b80156111245780601f106110f957610100808354040283529160200191611124565b820191906000526020600020905b81548152906001019060200180831161110757829003601f168201915b5050505050815260200160028201805461113d90614380565b80601f016020809104026020016040519081016040528092919081815260200182805461116990614380565b80156111b65780601f1061118b576101008083540402835291602001916111b6565b820191906000526020600020905b81548152906001019060200180831161119957829003601f168201915b50505050508152602001600382015481526020016004820154815260200160058201548152602001600682015481526020016007820154815250508152602001906001019061106d565b50505050905090565b60606000600f6000848152602001908152602001600020604051806101000160405290816000820154815260200160018201805461124690614380565b80601f016020809104026020016040519081016040528092919081815260200182805461127290614380565b80156112bf5780601f10611294576101008083540402835291602001916112bf565b820191906000526020600020905b8154815290600101906020018083116112a257829003601f168201915b505050505081526020016002820180546112d890614380565b80601f016020809104026020016040519081016040528092919081815260200182805461130490614380565b80156113515780601f1061132657610100808354040283529160200191611351565b820191906000526020600020905b81548152906001019060200180831161133457829003601f168201915b50505050508152602001600382015481526020016004820154815260200160058201548152602001600682015481526020016007820154815250509050600061139d82606001516125d3565b905060006113ae83608001516125d3565b905060006113bf8460a001516125d3565b905060006113d08560c001516125d3565b9050600061141886602001516113e58a6125d3565b8860400151888888886040516020016114049796959493929190613a40565b604051602081830303815290604052612780565b905060008160405160200161142d9190613afd565b604051602081830303815290604052905080975050505050505050919050565b611455612f7e565b6000601060003373ffffffffffffffffffffffffffffffffffffffff1673ffffffffffffffffffffffffffffffffffffffff168152602001908152602001600020549050600081111561162957600f600082815260200190815260200160002060405180610100016040529081600082015481526020016001820180546114db90614380565b80601f016020809104026020016040519081016040528092919081815260200182805461150790614380565b80156115545780601f1061152957610100808354040283529160200191611554565b820191906000526020600020905b81548152906001019060200180831161153757829003601f168201915b5050505050815260200160028201805461156d90614380565b80601f016020809104026020016040519081016040528092919081815260200182805461159990614380565b80156115e65780601f106115bb576101008083540402835291602001916115e6565b820191906000526020600020905b8154815290600101906020018083116115c957829003601f168201915b5050505050815260200160038201548152602001600482015481526020016005820154815260200160068201548152602001600782015481525050915050611637565b611631612f7e565b80925050505b90565b6000601060003373ffffffffffffffffffffffffffffffffffffffff1673ffffffffffffffffffffffffffffffffffffffff1681526020019081526020016000205490506000600f600083815260200190815260200160002090506000806000808460050154905061175a6040518060600160405280603c8152602001614be5603c91398660010180546116cd90614380565b80601f01602080910402602001604051908101604052809291908181526020018280546116f990614380565b80156117465780601f1061171b57610100808354040283529160200191611746565b820191906000526020600020905b81548152906001019060200180831161172957829003601f168201915b50505050508760030154886005015461293e565b6118326040518060400160405280601a81526020017f426f73732025732068617320257320485020616e642025204144000000000000815250600760000180546117a390614380565b80601f01602080910402602001604051908101604052809291908181526020018280546117cf90614380565b801561181c5780601f106117f15761010080835404028352916020019161181c565b820191906000526020600020905b8154815290600101906020018083116117ff57829003601f168201915b505050505060076002015460076004015461293e565b6000856003015411611879576040517f08c379a000000000000000000000000000000000000000000000000000000000815260040161187090613ec6565b60405180910390fd5b6000600760020154116118c1576040517f08c379a00000000000000000000000000000000000000000000000000000000081526004016118b890613dc6565b60405180910390fd5b6000606460065442446118d491906141b5565b6118de91906141b5565b6118e8919061442c565b90506000600a60065442446118fd91906141b5565b61190791906141b5565b611911919061442c565b90508160068190555060006002886006015461192d919061423c565b600e61193991906141b5565b90508083101561197d5760019650600584611954919061423c565b935060028860060154611967919061420b565b821015611977576001955061197c565b600194505b5b83600760020154101561199a5760006007600201819055506119b5565b836007600201546119ab9190614296565b6007600201819055505b83886007018190555084611a2857600760040154886003015410156119e35760008860030181905550611a27565b60076004015488600301546119f89190614296565b8860030181905550611a26604051806060016040528060288152602001614c616028913989600301546129e0565b5b5b8515611a5a5760028860050154611a3f919061420b565b886003016000828254611a529190614296565b925050819055505b7fb26f05031b4dc1575746e8f54625940468ac65c5947d94aaafe4e785a1326041600760020154896003015489898989604051611a9c96959493929190614071565b60405180910390a1505050505050505050565b6000600560008473ffffffffffffffffffffffffffffffffffffffff1673ffffffffffffffffffffffffffffffffffffffff16815260200190815260200160002060008373ffffffffffffffffffffffffffffffffffffffff1673ffffffffffffffffffffffffffffffffffffffff16815260200190815260200160002060009054906101000a900460ff16905092915050565b6000611b4f600d612a7c565b9050611b5b3382612a8a565b604051806101000160405280838152602001600e8481548110611ba7577f4e487b7100000000000000000000000000000000000000000000000000000000600052603260045260246000fd5b90600052602060002090600802016001018054611bc390614380565b80601f0160208091040260200160405190810160405280929190818152602001828054611bef90614380565b8015611c3c5780601f10611c1157610100808354040283529160200191611c3c565b820191906000526020600020905b815481529060010190602001808311611c1f57829003601f168201915b50505050508152602001600e8481548110611c80577f4e487b7100000000000000000000000000000000000000000000000000000000600052603260045260246000fd5b90600052602060002090600802016002018054611c9c90614380565b80601f0160208091040260200160405190810160405280929190818152602001828054611cc890614380565b8015611d155780601f10611cea57610100808354040283529160200191611d15565b820191906000526020600020905b815481529060010190602001808311611cf857829003601f168201915b50505050508152602001600e8481548110611d59577f4e487b7100000000000000000000000000000000000000000000000000000000600052603260045260246000fd5b9060005260206000209060080201600301548152602001600e8481548110611daa577f4e487b7100000000000000000000000000000000000000000000000000000000600052603260045260246000fd5b9060005260206000209060080201600301548152602001600e8481548110611dfb577f4e487b7100000000000000000000000000000000000000000000000000000000600052603260045260246000fd5b9060005260206000209060080201600501548152602001600e8481548110611e4c577f4e487b7100000000000000000000000000000000000000000000000000000000600052603260045260246000fd5b9060005260206000209060080201600601548152602001600e8481548110611e9d577f4e487b7100000000000000000000000000000000000000000000000000000000600052603260045260246000fd5b906000526020600020906008020160070154815250600f6000838152602001908152602001600020600082015181600001556020820151816001019080519060200190611eeb929190612fc3565b506040820151816002019080519060200190611f08929190612fc3565b50606082015181600301556080820151816004015560a0820151816005015560c0820151816006015560e08201518160070155905050611f616040518060600160405280602e8152602001614c89602e91398284612aa8565b7f4bc303fd457a97b4691b9af582ce71868a3d258638c8d4f8c60988a0f0bfb8cd338284604051611f9493929190613b86565b60405180910390a180601060003373ffffffffffffffffffffffffffffffffffffffff1673ffffffffffffffffffffffffffffffffffffffff16815260200190815260200160002081905550611fea600d612090565b5050565b61208a848484846040516024016120089493929190613c1c565b6040516020818303038152906040527f8d142cdd000000000000000000000000000000000000000000000000000000007bffffffffffffffffffffffffffffffffffffffffffffffffffffffff19166020820180517bffffffffffffffffffffffffffffffffffffffffffffffffffffffff8381831617835250505050612b47565b50505050565b6001816000016000828254019250508190555050565b60007f01ffc9a7000000000000000000000000000000000000000000000000000000007bffffffffffffffffffffffffffffffffffffffffffffffffffffffff1916827bffffffffffffffffffffffffffffffffffffffffffffffffffffffff1916149050919050565b60008073ffffffffffffffffffffffffffffffffffffffff166002600084815260200190815260200160002060009054906101000a900473ffffffffffffffffffffffffffffffffffffffff1673ffffffffffffffffffffffffffffffffffffffff1614159050919050565b600033905090565b816004600083815260200190815260200160002060006101000a81548173ffffffffffffffffffffffffffffffffffffffff021916908373ffffffffffffffffffffffffffffffffffffffff160217905550808273ffffffffffffffffffffffffffffffffffffffff166121f78361094e565b73ffffffffffffffffffffffffffffffffffffffff167f8c5be1e5ebec7d5bd14f71427d1e84f3dd0314c0f7b2291e5b200ac8c7c3b92560405160405180910390a45050565b600061224882612110565b612287576040517f08c379a000000000000000000000000000000000000000000000000000000000815260040161227e90613e46565b60405180910390fd5b60006122928361094e565b90508073ffffffffffffffffffffffffffffffffffffffff168473ffffffffffffffffffffffffffffffffffffffff16148061230157508373ffffffffffffffffffffffffffffffffffffffff166122e984610731565b73ffffffffffffffffffffffffffffffffffffffff16145b8061231257506123118185611aaf565b5b91505092915050565b8273ffffffffffffffffffffffffffffffffffffffff1661233b8261094e565b73ffffffffffffffffffffffffffffffffffffffff1614612391576040517f08c379a000000000000000000000000000000000000000000000000000000000815260040161238890613f26565b60405180910390fd5b600073ffffffffffffffffffffffffffffffffffffffff168273ffffffffffffffffffffffffffffffffffffffff161415612401576040517f08c379a00000000000000000000000000000000000000000000000000000000081526004016123f890613e06565b60405180910390fd5b61240c838383612b70565b612417600082612184565b6001600360008573ffffffffffffffffffffffffffffffffffffffff1673ffffffffffffffffffffffffffffffffffffffff16815260200190815260200160002060008282546124679190614296565b925050819055506001600360008473ffffffffffffffffffffffffffffffffffffffff1673ffffffffffffffffffffffffffffffffffffffff16815260200190815260200160002060008282546124be91906141b5565b92505081905550816002600083815260200190815260200160002060006101000a81548173ffffffffffffffffffffffffffffffffffffffff021916908373ffffffffffffffffffffffffffffffffffffffff160217905550808273ffffffffffffffffffffffffffffffffffffffff168473ffffffffffffffffffffffffffffffffffffffff167fddf252ad1be2c89b69c2b068fc378daa952ba7f163c4a11628f55a4df523b3ef60405160405180910390a4505050565b61258284848461231b565b61258e84848484612b75565b6125cd576040517f08c379a00000000000000000000000000000000000000000000000000000000081526004016125c490613da6565b60405180910390fd5b50505050565b6060600082141561261b576040518060400160405280600181526020017f3000000000000000000000000000000000000000000000000000000000000000815250905061277b565b600082905060005b6000821461264d578080612636906143e3565b915050600a82612646919061420b565b9150612623565b60008167ffffffffffffffff81111561268f577f4e487b7100000000000000000000000000000000000000000000000000000000600052604160045260246000fd5b6040519080825280601f01601f1916602001820160405280156126c15781602001600182028036833780820191505090505b5090505b60008514612774576001826126da9190614296565b9150600a856126e9919061442c565b60306126f591906141b5565b60f81b818381518110612731577f4e487b7100000000000000000000000000000000000000000000000000000000600052603260045260246000fd5b60200101907effffffffffffffffffffffffffffffffffffffffffffffffffffffffffffff1916908160001a905350600a8561276d919061420b565b94506126c5565b8093505050505b919050565b606060008251905060008114156127a95760405180602001604052806000815250915050612939565b600060036002836127ba91906141b5565b6127c4919061420b565b60046127d0919061423c565b905060006020826127e191906141b5565b67ffffffffffffffff811115612820577f4e487b7100000000000000000000000000000000000000000000000000000000600052604160045260246000fd5b6040519080825280601f01601f1916602001820160405280156128525781602001600182028036833780820191505090505b5090506000604051806060016040528060408152602001614c21604091399050600181016020830160005b868110156128f65760038101905062ffffff818a015116603f8160121c168401518060081b905060ff603f83600c1c1686015116810190508060081b905060ff603f8360061c1686015116810190508060081b905060ff603f831686015116810190508060e01b9050808452600484019350505061287d565b50600386066001811461291057600281146129205761292b565b613d3d60f01b600283035261292b565b603d60f81b60018303525b508484525050819450505050505b919050565b6129da848484846040516024016129589493929190613c76565b6040516020818303038152906040527fd5cf17d0000000000000000000000000000000000000000000000000000000007bffffffffffffffffffffffffffffffffffffffffffffffffffffffff19166020820180517bffffffffffffffffffffffffffffffffffffffffffffffffffffffff8381831617835250505050612b47565b50505050565b612a7882826040516024016129f6929190613d38565b6040516020818303038152906040527f9710a9d0000000000000000000000000000000000000000000000000000000007bffffffffffffffffffffffffffffffffffffffffffffffffffffffff19166020820180517bffffffffffffffffffffffffffffffffffffffffffffffffffffffff8381831617835250505050612b47565b5050565b600081600001549050919050565b612aa4828260405180602001604052806000815250612d0c565b5050565b612b42838383604051602401612ac093929190613d68565b6040516020818303038152906040527f969cdd03000000000000000000000000000000000000000000000000000000007bffffffffffffffffffffffffffffffffffffffffffffffffffffffff19166020820180517bffffffffffffffffffffffffffffffffffffffffffffffffffffffff8381831617835250505050612b47565b505050565b60008151905060006a636f6e736f6c652e6c6f679050602083016000808483855afa5050505050565b505050565b6000612b968473ffffffffffffffffffffffffffffffffffffffff16612d67565b15612cff578373ffffffffffffffffffffffffffffffffffffffff1663150b7a02612bbf61217c565b8786866040518563ffffffff1660e01b8152600401612be19493929190613b3a565b602060405180830381600087803b158015612bfb57600080fd5b505af1925050508015612c2c57506040513d601f19601f82011682018060405250810190612c299190613307565b60015b612caf573d8060008114612c5c576040519150601f19603f3d011682016040523d82523d6000602084013e612c61565b606091505b50600081511415612ca7576040517f08c379a0000000000000000000000000000000000000000000000000000000008152600401612c9e90613da6565b60405180910390fd5b805181602001fd5b63150b7a0260e01b7bffffffffffffffffffffffffffffffffffffffffffffffffffffffff1916817bffffffffffffffffffffffffffffffffffffffffffffffffffffffff191614915050612d04565b600190505b949350505050565b612d168383612d7a565b612d236000848484612b75565b612d62576040517f08c379a0000000000000000000000000000000000000000000000000000000008152600401612d5990613da6565b60405180910390fd5b505050565b600080823b905060008111915050919050565b600073ffffffffffffffffffffffffffffffffffffffff168273ffffffffffffffffffffffffffffffffffffffff161415612dea576040517f08c379a0000000000000000000000000000000000000000000000000000000008152600401612de190613ee6565b60405180910390fd5b612df381612110565b15612e33576040517f08c379a0000000000000000000000000000000000000000000000000000000008152600401612e2a90613de6565b60405180910390fd5b612e3f60008383612b70565b6001600360008473ffffffffffffffffffffffffffffffffffffffff1673ffffffffffffffffffffffffffffffffffffffff1681526020019081526020016000206000828254612e8f91906141b5565b92505081905550816002600083815260200190815260200160002060006101000a81548173ffffffffffffffffffffffffffffffffffffffff021916908373ffffffffffffffffffffffffffffffffffffffff160217905550808273ffffffffffffffffffffffffffffffffffffffff16600073ffffffffffffffffffffffffffffffffffffffff167fddf252ad1be2c89b69c2b068fc378daa952ba7f163c4a11628f55a4df523b3ef60405160405180910390a45050565b6040518060c001604052806060815260200160608152602001600081526020016000815260200160008152602001600081525090565b60405180610100016040528060008152602001606081526020016060815260200160008152602001600081526020016000815260200160008152602001600081525090565b828054612fcf90614380565b90600052602060002090601f016020900481019282612ff15760008555613038565b82601f1061300a57805160ff1916838001178555613038565b82800160010185558215613038579182015b8281111561303757825182559160200191906001019061301c565b5b5090506130459190613049565b5090565b5b8082111561306257600081600090555060010161304a565b5090565b6000613079613074846140f7565b6140d2565b90508281526020810184848401111561309157600080fd5b61309c84828561433e565b509392505050565b6000813590506130b381614b88565b92915050565b6000813590506130c881614b9f565b92915050565b6000813590506130dd81614bb6565b92915050565b6000815190506130f281614bb6565b92915050565b600082601f83011261310957600080fd5b8135613119848260208601613066565b91505092915050565b60008135905061313181614bcd565b92915050565b60006020828403121561314957600080fd5b6000613157848285016130a4565b91505092915050565b6000806040838503121561317357600080fd5b6000613181858286016130a4565b9250506020613192858286016130a4565b9150509250929050565b6000806000606084860312156131b157600080fd5b60006131bf868287016130a4565b93505060206131d0868287016130a4565b92505060406131e186828701613122565b9150509250925092565b6000806000806080858703121561320157600080fd5b600061320f878288016130a4565b9450506020613220878288016130a4565b935050604061323187828801613122565b925050606085013567ffffffffffffffff81111561324e57600080fd5b61325a878288016130f8565b91505092959194509250565b6000806040838503121561327957600080fd5b6000613287858286016130a4565b9250506020613298858286016130b9565b9150509250929050565b600080604083850312156132b557600080fd5b60006132c3858286016130a4565b92505060206132d485828601613122565b9150509250929050565b6000602082840312156132f057600080fd5b60006132fe848285016130ce565b91505092915050565b60006020828403121561331957600080fd5b6000613327848285016130e3565b91505092915050565b60006020828403121561334257600080fd5b600061335084828501613122565b91505092915050565b600061336583836138b4565b905092915050565b613376816142ca565b82525050565b600061338782614138565b6133918185614166565b9350836020820285016133a385614128565b8060005b858110156133df57848403895281516133c08582613359565b94506133cb83614159565b925060208a019950506001810190506133a7565b50829750879550505050505092915050565b6133fa816142dc565b82525050565b600061340b82614143565b6134158185614177565b935061342581856020860161434d565b61342e81614519565b840191505092915050565b60006134448261414e565b61344e8185614188565b935061345e81856020860161434d565b61346781614519565b840191505092915050565b600061347d8261414e565b6134878185614199565b935061349781856020860161434d565b6134a081614519565b840191505092915050565b60006134b68261414e565b6134c081856141aa565b93506134d081856020860161434d565b80840191505092915050565b60006134e9600b836141aa565b91506134f48261452a565b600b82019050919050565b600061350c605d836141aa565b915061351782614553565b605d82019050919050565b600061352f603283614199565b915061353a826145c8565b604082019050919050565b6000613552602883614199565b915061355d82614617565b604082019050919050565b6000613575601c83614199565b915061358082614666565b602082019050919050565b60006135986028836141aa565b91506135a38261468f565b602882019050919050565b60006135bb600e836141aa565b91506135c6826146de565b600e82019050919050565b60006135de602483614199565b91506135e982614707565b604082019050919050565b6000613601601983614199565b915061360c82614756565b602082019050919050565b6000613624602c83614199565b915061362f8261477f565b604082019050919050565b6000613647603883614199565b9150613652826147ce565b604082019050919050565b600061366a602a83614199565b91506136758261481d565b604082019050919050565b600061368d602983614199565b91506136988261486c565b604082019050919050565b60006136b0602d83614199565b91506136bb826148bb565b604082019050919050565b60006136d36004836141aa565b91506136de8261490a565b600482019050919050565b60006136f6602083614199565b915061370182614933565b602082019050919050565b6000613719602c83614199565b91506137248261495c565b604082019050919050565b600061373c602983614199565b9150613747826149ab565b604082019050919050565b600061375f600a836141aa565b915061376a826149fa565b600a82019050919050565b6000613782602183614199565b915061378d82614a23565b604082019050919050565b60006137a5601d836141aa565b91506137b082614a72565b601d82019050919050565b60006137c8603183614199565b91506137d382614a9b565b604082019050919050565b60006137eb603d836141aa565b91506137f682614aea565b603d82019050919050565b600061380e602d836141aa565b915061381982614b39565b602d82019050919050565b600060c08301600083015184820360008601526138418282613439565b9150506020830151848203602086015261385b8282613439565b91505060408301516138706040860182613a22565b5060608301516138836060860182613a22565b5060808301516138966080860182613a22565b5060a08301516138a960a0860182613a22565b508091505092915050565b6000610100830160008301516138cd6000860182613a22565b50602083015184820360208601526138e58282613439565b915050604083015184820360408601526138ff8282613439565b91505060608301516139146060860182613a22565b5060808301516139276080860182613a22565b5060a083015161393a60a0860182613a22565b5060c083015161394d60c0860182613a22565b5060e083015161396060e0860182613a22565b508091505092915050565b6000610100830160008301516139846000860182613a22565b506020830151848203602086015261399c8282613439565b915050604083015184820360408601526139b68282613439565b91505060608301516139cb6060860182613a22565b5060808301516139de6080860182613a22565b5060a08301516139f160a0860182613a22565b5060c0830151613a0460c0860182613a22565b5060e0830151613a1760e0860182613a22565b508091505092915050565b613a2b81614334565b82525050565b613a3a81614334565b82525050565b6000613a4b82613752565b9150613a57828a6134ab565b9150613a62826134dc565b9150613a6e82896134ab565b9150613a79826134ff565b9150613a8582886134ab565b9150613a90826137de565b9150613a9c82876134ab565b9150613aa7826135ae565b9150613ab382866134ab565b9150613abe82613801565b9150613aca82856134ab565b9150613ad58261358b565b9150613ae182846134ab565b9150613aec826136c6565b915081905098975050505050505050565b6000613b0882613798565b9150613b1482846134ab565b915081905092915050565b6000602082019050613b34600083018461336d565b92915050565b6000608082019050613b4f600083018761336d565b613b5c602083018661336d565b613b696040830185613a31565b8181036060830152613b7b8184613400565b905095945050505050565b6000606082019050613b9b600083018661336d565b613ba86020830185613a31565b613bb56040830184613a31565b949350505050565b60006020820190508181036000830152613bd7818461337c565b905092915050565b6000602082019050613bf460008301846133f1565b92915050565b60006020820190508181036000830152613c148184613472565b905092915050565b60006080820190508181036000830152613c368187613472565b90508181036020830152613c4a8186613472565b9050613c596040830185613a31565b8181036060830152613c6b8184613472565b905095945050505050565b60006080820190508181036000830152613c908187613472565b90508181036020830152613ca48186613472565b9050613cb36040830185613a31565b613cc06060830184613a31565b95945050505050565b600060c0820190508181036000830152613ce38189613472565b90508181036020830152613cf78188613472565b9050613d066040830187613a31565b613d136060830186613a31565b613d206080830185613a31565b613d2d60a0830184613a31565b979650505050505050565b60006040820190508181036000830152613d528185613472565b9050613d616020830184613a31565b9392505050565b60006060820190508181036000830152613d828186613472565b9050613d916020830185613a31565b613d9e6040830184613a31565b949350505050565b60006020820190508181036000830152613dbf81613522565b9050919050565b60006020820190508181036000830152613ddf81613545565b9050919050565b60006020820190508181036000830152613dff81613568565b9050919050565b60006020820190508181036000830152613e1f816135d1565b9050919050565b60006020820190508181036000830152613e3f816135f4565b9050919050565b60006020820190508181036000830152613e5f81613617565b9050919050565b60006020820190508181036000830152613e7f8161363a565b9050919050565b60006020820190508181036000830152613e9f8161365d565b9050919050565b60006020820190508181036000830152613ebf81613680565b9050919050565b60006020820190508181036000830152613edf816136a3565b9050919050565b60006020820190508181036000830152613eff816136e9565b9050919050565b60006020820190508181036000830152613f1f8161370c565b9050919050565b60006020820190508181036000830152613f3f8161372f565b9050919050565b60006020820190508181036000830152613f5f81613775565b9050919050565b60006020820190508181036000830152613f7f816137bb565b9050919050565b60006020820190508181036000830152613fa08184613824565b905092915050565b60006020820190508181036000830152613fc2818461396b565b905092915050565b6000602082019050613fdf6000830184613a31565b92915050565b600061010082019050613ffb600083018b613a31565b818103602083015261400d818a613472565b905081810360408301526140218189613472565b90506140306060830188613a31565b61403d6080830187613a31565b61404a60a0830186613a31565b61405760c0830185613a31565b61406460e0830184613a31565b9998505050505050505050565b600060c0820190506140866000830189613a31565b6140936020830188613a31565b6140a060408301876133f1565b6140ad60608301866133f1565b6140ba60808301856133f1565b6140c760a0830184613a31565b979650505050505050565b60006140dc6140ed565b90506140e882826143b2565b919050565b6000604051905090565b600067ffffffffffffffff821115614112576141116144ea565b5b61411b82614519565b9050602081019050919050565b6000819050602082019050919050565b600081519050919050565b600081519050919050565b600081519050919050565b6000602082019050919050565b600082825260208201905092915050565b600082825260208201905092915050565b600082825260208201905092915050565b600082825260208201905092915050565b600081905092915050565b60006141c082614334565b91506141cb83614334565b9250827fffffffffffffffffffffffffffffffffffffffffffffffffffffffffffffffff03821115614200576141ff61445d565b5b828201905092915050565b600061421682614334565b915061422183614334565b9250826142315761423061448c565b5b828204905092915050565b600061424782614334565b915061425283614334565b9250817fffffffffffffffffffffffffffffffffffffffffffffffffffffffffffffffff048311821515161561428b5761428a61445d565b5b828202905092915050565b60006142a182614334565b91506142ac83614334565b9250828210156142bf576142be61445d565b5b828203905092915050565b60006142d582614314565b9050919050565b60008115159050919050565b60007fffffffff0000000000000000000000000000000000000000000000000000000082169050919050565b600073ffffffffffffffffffffffffffffffffffffffff82169050919050565b6000819050919050565b82818337600083830152505050565b60005b8381101561436b578082015181840152602081019050614350565b8381111561437a576000848401525b50505050565b6000600282049050600182168061439857607f821691505b602082108114156143ac576143ab6144bb565b5b50919050565b6143bb82614519565b810181811067ffffffffffffffff821117156143da576143d96144ea565b5b80604052505050565b60006143ee82614334565b91507fffffffffffffffffffffffffffffffffffffffffffffffffffffffffffffffff8214156144215761442061445d565b5b600182019050919050565b600061443782614334565b915061444283614334565b9250826144525761445161448c565b5b828206905092915050565b7f4e487b7100000000000000000000000000000000000000000000000000000000600052601160045260246000fd5b7f4e487b7100000000000000000000000000000000000000000000000000000000600052601260045260246000fd5b7f4e487b7100000000000000000000000000000000000000000000000000000000600052602260045260246000fd5b7f4e487b7100000000000000000000000000000000000000000000000000000000600052604160045260246000fd5b6000601f19601f8301169050919050565b7f202d2d204e465420233a20000000000000000000000000000000000000000000600082015250565b7f222c20226465736372697074696f6e223a202254686973204e4654206c65747360008201527f2070656f706c6520706c617920696e207468652067616d652043727970746f4260208201527f6f6f6e646f636b7321222c2022696d616765223a2022697066733a2f2f000000604082015250565b7f4552433732313a207472616e7366657220746f206e6f6e20455243373231526560008201527f63656976657220696d706c656d656e7465720000000000000000000000000000602082015250565b7f4572726f723a20626f7373206d757374206861766520485020746f206174746160008201527f636b20626f73732e000000000000000000000000000000000000000000000000602082015250565b7f4552433732313a20746f6b656e20616c7265616479206d696e74656400000000600082015250565b7f7d2c207b202274726169745f74797065223a20224e69676761747279222c202260008201527f76616c7565223a20000000000000000000000000000000000000000000000000602082015250565b7f2c20226d61785f76616c7565223a000000000000000000000000000000000000600082015250565b7f4552433732313a207472616e7366657220746f20746865207a65726f2061646460008201527f7265737300000000000000000000000000000000000000000000000000000000602082015250565b7f4552433732313a20617070726f766520746f2063616c6c657200000000000000600082015250565b7f4552433732313a206f70657261746f7220717565727920666f72206e6f6e657860008201527f697374656e7420746f6b656e0000000000000000000000000000000000000000602082015250565b7f4552433732313a20617070726f76652063616c6c6572206973206e6f74206f7760008201527f6e6572206e6f7220617070726f76656420666f7220616c6c0000000000000000602082015250565b7f4552433732313a2062616c616e636520717565727920666f7220746865207a6560008201527f726f206164647265737300000000000000000000000000000000000000000000602082015250565b7f4552433732313a206f776e657220717565727920666f72206e6f6e657869737460008201527f656e7420746f6b656e0000000000000000000000000000000000000000000000602082015250565b7f4572726f723a20636861726163746572206d757374206861766520485020746f60008201527f2061747461636b20626f73732e00000000000000000000000000000000000000602082015250565b7f7d205d7d00000000000000000000000000000000000000000000000000000000600082015250565b7f4552433732313a206d696e7420746f20746865207a65726f2061646472657373600082015250565b7f4552433732313a20617070726f76656420717565727920666f72206e6f6e657860008201527f697374656e7420746f6b656e0000000000000000000000000000000000000000602082015250565b7f4552433732313a207472616e73666572206f6620746f6b656e2074686174206960008201527f73206e6f74206f776e0000000000000000000000000000000000000000000000602082015250565b7f7b226e616d65223a202200000000000000000000000000000000000000000000600082015250565b7f4552433732313a20617070726f76616c20746f2063757272656e74206f776e6560008201527f7200000000000000000000000000000000000000000000000000000000000000602082015250565b7f646174613a6170706c69636174696f6e2f6a736f6e3b6261736536342c000000600082015250565b7f4552433732313a207472616e736665722063616c6c6572206973206e6f74206f60008201527f776e6572206e6f7220617070726f766564000000000000000000000000000000602082015250565b7f222c202261747472696275746573223a205b207b202274726169745f7479706560008201527f223a20224865616c746820506f696e7473222c202276616c7565223a20000000602082015250565b7f7d2c207b202274726169745f74797065223a202241747461636b2044616d616760008201527f65222c202276616c7565223a2000000000000000000000000000000000000000602082015250565b614b91816142ca565b8114614b9c57600080fd5b50565b614ba8816142dc565b8114614bb357600080fd5b50565b614bbf816142e8565b8114614bca57600080fd5b50565b614bd681614334565b8114614be157600080fd5b5056fe0a504c6179657220772f206368617261637465722025732061626f757420746f2061747461636b2e2048617320257320485020616e642025732041444142434445464748494a4b4c4d4e4f505152535455565758595a6162636465666768696a6b6c6d6e6f707172737475767778797a303132333435363738392b2f426f73732061747461636b656420706c617965722e204e657720706c617965722068703a2025730a4d696e746564204e465420772f20746f6b656e496420257320616e6420636861726163746572496e646578202573a26469706673582212200a3930c0bfd71616b6583f46bc0915f178fed9c33e12e14deea078e6a7d66a9464736f6c63430008040033446f6e6520696e697469616c6973696e6720626f737320257320772f2048502025732c20696d67202573446f6e6520696e697469616c697a696e6720257320772f20485025732c20696d67202573",
    "linkReferences": {},
    "deployedLinkReferences": {}
}